:100000000C9434000C943E000C943E000C943E0082
:100010000C943E000C943E000C943E000C943E0068
:100020000C943E000C943E000C943E000C943E0058
:100030000C943E000C943E000C943E000C943E0048
:100040000C943E000C943E000C943E000C943E0038
:100050000C943E000C943E000C943E000C943E0028
:100060000C943E000C943E0011241FBECFEFD8E04C
:10007000DEBFCDBF0E94AC000C94C9000C94000000
:1000800094B19C6294B92A9A982F9D7F21E0913077
:1000900009F020E08250823010F090E501C098E530
:1000A000211102C080E001C084E0892B8CBD8CB599
:1000B0008C7F9DB59E7F6031B9F040F46430A9F02B
:1000C000683061F0623081F491600FC0603441F0BB
:1000D000603841F0603241F4916002C0916004C028
:1000E000826003C0836001C081602CB52C7F837067
:1000F000822B8CBD8DB58E7F9170982B9DBD089500
:100100008EBD0DB407FEFDCF8EB50895882311F086
:1001100041980895419A0895CF93C82F419A892F05
:100120000E9480008C2F0E948000429A84E08A9571
:10013000F1F7000042984198CF9108953A9A399A80
:100140004298419A64E080E00E94400080E090E0A4
:100150000E948C00419808950E949E008FEF9FEFAF
:100160000E948C002FED86EE9BE021508040904055
:10017000E1F700C0000080E090E00E948C002FEDCD
:1001800086EE9BE0215080409040E1F700C00000E7
:06019000E5CFF894FFCF5B
:00000001FF
