:100000000C9434000C940E010C9451000C9451008B
:100010000C9451000C9451000C9451000C9451001C
:100020000C9451000C9451000C9451000C9451000C
:100030000C9451000C9451000C9451000C945100FC
:100040000C9451000C9451000C9451000C945100EC
:100050000C9451000C9451000C9451000C945100DC
:100060000C9451000C94510011241FBECFEFD8E026
:10007000DEBFCDBF11E0A0E0B1E0ECE7F8E002C0E8
:1000800005900D92AE36B107D9F721E0AEE6B1E0AA
:1000900001C01D92A137B207E1F70E9450030C94F2
:1000A0003C040C94000020E030E0281739070CF0E5
:1000B0000895E1EBFCE03197F1F700C000002F5FFD
:1000C0003F4FF3CF20E030E0281739070CF00895B8
:1000D00044E04A95F1F700002F5F3F4FF5CF0097BE
:1000E00069F0409184005091850020918400309106
:1000F0008500241B350B28173907B8F30895AF92F4
:10010000BF92CF92DF92EF92FF920F931F93CF9304
:10011000DF9300D000D0CDB7DEB7009770406040CD
:10012000B1F120E43DE546EC50E00E94A9032983AB
:100130003A834B835C83303910ED410713E051075C
:10014000610571058105910588F1503910ED610750
:1001500013E071078105910560F5A12CE0E9BE2E41
:10016000F0EDCF2EF3E0DF2EE12CF12C87010E9481
:10017000D603C901409184005091850020918400EC
:1001800030918500241B350B28173907B8F30F90E1
:100190000F900F900F90DF91CF911F910F91FF90D3
:1001A000EF90DF90CF90BF90AF90089521E030E0C6
:1001B000E0CF2FEF3FEFDDCFFC01908121E001C0C8
:1001C000220F6A95EAF7922B90830895FC014081F3
:1001D00021E001C0220F6A95EAF7209524232083AD
:1001E0000895FC0121E030E0C90101C0880F6A9543
:1001F000EAF7682F8081411519F0862B80830895D6
:100200006095682360830895FC01808190E002C0BE
:10021000959587956A95E2F7817008958F931F925F
:1002200080E0182E9F93EF93FF93E4E8F0E0808145
:1002300091819093700180936F011182108281E00F
:1002400080936E01FF91EF919F911F908F91189570
:1002500041E061E089E690E00E94F10040E060E06A
:1002600089E690E00E94F10041E060E08DE390E0DB
:100270000E94F10040E062E081E890E00E94F1001D
:1002800041E061E081E890E00E94F10041E060E03F
:1002900081E890E00E94F10078940895CF93DF9375
:1002A00000D0CDB7DEB740E060E08DE390E00E9483
:1002B000F10080916F019091700189839A8310926F
:1002C0006E0141E060E08DE390E00E94F1008981E1
:1002D0009A810F900F90DF91CF910895CF93DF9384
:1002E00000D000D0CDB7DEB769837A838B839C833F
:1002F0000E944E01DC0129813A814B815C810E9480
:100300009E0328E631E040E050E00E947C03C901F2
:100310000F900F900F900F90DF91CF91089562E0B2
:100320008AE290E00E94E60041E062E08BE290E029
:100330000E94F1000C94280162E089E290E00C94A4
:10034000040141E061E088E290E00C94F10041E0BA
:1003500062E088E290E00C94F10065E084E290E0D5
:100360000E94DC0040E065E085E290E00C94F10042
:1003700063E084E290E00C94DC00209184003091F2
:100380008500AC01421B530B57FD04C020916E0148
:10039000211599F3089541E065E085E290E00C9421
:1003A000F10040E065E085E290E00C94F10041E06E
:1003B000892B09F440E063E085E290E00C94F100C1
:1003C000892B11F00C94A10140E061E088E290E0FB
:1003D0000C94F10061E087E290E00E94DC0080E094
:1003E00090E00C94E001892B11F00C94A70140E0FF
:1003F00062E088E290E00C94F10062E087E290E035
:100400000E94DC0080E090E00C94F3010E94AD01BA
:100410000E94B8010E94EA010E94FD0180E090E084
:100420000C94E0010F931F93CF93DF93EC010E9494
:10043000A1018E01005F1F4F899190E00E94D701BA
:100440000E94CB010E94D101C017D107A9F70E94D9
:10045000A70180E090E00E94F30180E090E0DF914E
:10046000CF911F910F910C94E001CF93DF9300D0B7
:10047000CDB7DEB769837A830E94120229813A815F
:10048000B90180E090E00E947F000F900F90DF9113
:10049000CF910C94A101CF93DF9300D0CDB7DEB7FD
:1004A00069837A830E94120289819A810E946F0077
:1004B0000F900F90DF91CF910C94A1010F931F9398
:1004C000CF93DF93EC018C01005F1F4F899190E087
:1004D0000E94D7010E94CB010E94D101C017D10711
:1004E000A9F7DF91CF911F910F910895CF93DF93DB
:1004F00000D0CDB7DEB789839A830E94A70180E040
:1005000090E00E94F30180E090E00E94E001898188
:100510009A810E946F000F900F90DF91CF910C9401
:10052000A101CF93DF93CDB7DEB728970FB6F8942C
:10053000DEBF0FBECDBF89839A834B835C836D83FF
:100540007E8380916E018115E1F30E944E018F83BD
:100550009887DC012B813C814D815E810E949E0346
:10056000883621E0920708F528E631E040E050E0C7
:100570000E947C03C9010E94BD018F81988561E0C2
:1005800070E0883621E0920720F068E671E00E9472
:10059000680389819A8128960FB6F894DEBF0FBE52
:1005A000CDBFDF91CF910C944B022FEF3FEFE2CF05
:1005B0007F928F929F92AF92BF92CF92DF92EF92F3
:1005C000FF920F931F93CF93DF9300D00F92CDB77D
:1005D000DEB78C0180916E018115E1F30E944E011E
:1005E0007C01883621E0920710F168E671E00E94F4
:1005F00068036983772E0A831B8300E010E0C090B4
:100600006C01D0906D010C151D05ACF00F900F9092
:100610000F90DF91CF911F910F91FF90EF90DF909E
:10062000CF90BF90AF909F908F907F90089581E082
:100630008983712CE0CFEA81FB8120813181D70150
:100640000E94590399249A94892C8836F1E09F07D7
:1006500038F428E631E040E050E00E947C03490194
:10066000C40106970E94BD0180916E018111CECF19
:100670008A819B8102960E945E02C4010E94BD0194
:1006800080916E018111C2CF8A819B8142968A83BB
:100690009B838981972D0E9476020F5F1F4FB3CFF6
:1006A0000E9406020E948F0180E091E00E94D80221
:1006B000FBCFA29FB001B39FC001A39F700D811D0E
:1006C0001124911DB29F700D811D1124911D08955B
:1006D000AA1BBB1B51E107C0AA1FBB1FA617B70768
:1006E00010F0A61BB70B881F991F5A95A9F7809584
:1006F0009095BC01CD010895A1E21A2EAA1BBB1B47
:10070000FD010DC0AA1FBB1FEE1FFF1FA217B307DD
:10071000E407F50720F0A21BB30BE40BF50B661FF3
:10072000771F881F991F1A9469F7609570958095B7
:1007300090959B01AC01BD01CF0108950E94590322
:10074000A59F900DB49F900DA49F800D911D112425
:100750000895E894DF93CF93FC01DB010E945903D5
:100760007F936F93E9019A01AC01BF93AF933F93DD
:100770002F93DF010E94590326F46C1B7D0B820B23
:10078000930B9E01EB01FC010E943304AF91BF91DA
:100790002F913F910E943304BE01CF01F9012F91A7
:1007A0003F91CF91DF910895689401C0E8948F92B2
:1007B0009F92CF93DF930E94E203DF91CF919F90AE
:1007C0008F90089588249924F401E401B0E49F9364
:1007D000AA279A158B049C04ED05FE05CF05D007CA
:1007E000A10798F4AD2FDC2FCF2FFE2FE92D982CE9
:1007F000892E982F872F762F652F542F432F322F36
:100800002227B85031F7BF9127C01B2EBF91BB27BD
:10081000220F331F441F551F661F771F881F991F04
:10082000881C991CEE1FFF1FCC1FDD1FAA1FBB1FBA
:100830008A149B04EC05FD05CE05DF05A007B10772
:1008400048F08A189B08EC09FD09CE09DF09A00BC6
:10085000B10B21601A94E1F62EF49401AF01BE01B0
:10086000CD01000C08950E945903460F571FC81F61
:0C087000D91F08F431960895F894FFCFCA
:10087C000000000101010001000000000000000068
:10088C000000030000010001000100000000000056
:10089C000000000006000001000101010000000042
:1008AC000000000000000900000000000000000033
:1008BC0000000000000000000A000001010101011D
:1008CC00000000000000000000000D00000000000F
:0E08DC00000000000000000000000000060008
:00000001FF
