:100000000C9434000C9446000C9446000C9446006A
:100010000C9446000C9446000C9446000C94460048
:100020000C9446000C9446000C9446000C94460038
:100030000C9446000C9446000C9446000C94460028
:100040000C9446000C9446000C9446000C94460018
:100050000C9446000C9446000C9446000C94460008
:100060000C9446000C94460011241FBECFEFD8E03C
:10007000DEBFCDBF21E0A0E0B1E001C01D92A23003
:10008000B207E1F70E9476000C9483000C94000004
:1000900084B1886284B987B1866087B985B1877D6C
:1000A00085B94198429808952FE030E061E070E012
:1000B000AB01022E02C0440F551F0A94E2F74823F9
:1000C0005923452B89F02B9A2D9A4BE24A95F1F74B
:1000D00000002D982150310958F7429A84E08A9502
:1000E000F1F70000429808952B98EECF0E94480047
:1000F000C1E0D0E0C0930001D093010181E090E025
:0A0100000E945400F7CFF894FFCFDF
:00000001FF
