:100000000C9434000C9453000C9451000C94510047
:100010000C9451000C9451000C9451000C9451001C
:100020000C9451000C9451000C9451000C9451000C
:100030000C9451000C9451000C9451000C945100FC
:100040000C9451000C9451000C9451000C945100EC
:100050000C9451000C9451000C9451000C945100DC
:100060000C9451000C94510011241FBECFEFD8E026
:10007000DEBFCDBF11E0A0E0B1E0E4EFF8E002C0E8
:1000800005900D92A830B107D9F721E0A8E0B1E0C2
:1000900001C01D92AB30B207E1F70E948B030C94B4
:1000A00078040C9400008F931F9280E0182E9F9389
:1000B000EF93FF93E4E8F0E08081918190930A014F
:1000C000809309011182108281E080930801FF91E1
:1000D000EF919F911F908F91189541E061E089E623
:1000E00090E00E946E0340E060E089E690E00E94AC
:1000F0006E0341E060E08DE390E00E946E0340E01B
:1001000062E081E890E00E946E0341E061E081E8F6
:1001100090E00E946E0341E060E081E890E00E9480
:100120006E0378940895CF93DF9300D0CDB7DEB7F8
:1001300040E060E08DE390E00E946E038091090151
:1001400090910A0189839A831092080141E060E04E
:100150008DE390E00E946E0389819A810F900F9049
:10016000DF91CF910895CF93DF9300D000D0CDB72A
:10017000DEB769837A838B839C830E949300DC01C2
:1001800029813A814B815C810E94DA0328E631E0C3
:1001900040E050E00E94B803C9010F900F900F900B
:1001A0000F90DF91CF91089562E08AE290E00E9483
:1001B000630341E062E08BE290E00E946E030C94E6
:1001C0006D0062E089E290E00C94810341E061E01F
:1001D00088E290E00C946E0341E062E088E290E0F7
:1001E0000C946E0365E084E290E00E94590340E0C5
:1001F00065E085E290E00C946E0363E084E290E0B9
:100200000C9459032091840030918500AC01421B6D
:10021000530B57FD04C020910801211599F308954F
:1002200041E065E085E290E00C946E0340E065E01B
:1002300085E290E00C946E0341E0892B09F440E0E4
:1002400063E085E290E00C946E03892B11F00C942E
:10025000E60040E061E088E290E00C946E0361E02B
:1002600087E290E00E94590380E090E00C94250121
:10027000892B11F00C94EC0040E062E088E290E001
:100280000C946E0362E087E290E00E94590380E0E4
:1002900090E00C9438010E94F2000E94FD000E9440
:1002A0002F010E94420180E090E00C942501CF9341
:1002B000DF9300D000D0CDB7DEB789839A830E9448
:1002C000E6001B821C82EB81FC8183E0F595E795BB
:1002D0008A95E1F789819A81E80FF91F808190E082
:1002E0002B813C8120953095277002C0959587958C
:1002F0002A95E2F7817090E00E941C010E94100193
:100300000E9416018B819C8101968B839C83409770
:10031000D1F60E94EC0080E090E00E94380180E07D
:1003200090E00F900F900F900F90DF91CF910C9471
:100330002501CF93DF9300D0CDB7DEB769837A83F1
:100340000E94570129813A81B90180E090E00E9422
:10035000FC020F900F90DF91CF910C94E600CF93A9
:10036000DF9300D0CDB7DEB769837A830E9457014F
:1003700089819A810E94EC020F900F90DF91CF91BA
:100380000C94E6000F931F93CF93DF93EC018C0145
:10039000005F1F4F899190E00E941C010E94100194
:1003A0000E941601C017D107A9F7DF91CF911F91C5
:1003B0000F910895CF93DF9300D0CDB7DEB7898337
:1003C0009A830E94EC0080E090E00E94380180E077
:1003D00090E00E94250189819A810E94EC020F9091
:1003E0000F90DF91CF910C94E600CF93DF93CDB7C0
:1003F000DEB728970FB6F894DEBF0FBECDBF898356
:100400009A834B835C836D837E8380910801811581
:10041000E1F30E9493008F839887DC012B813C815C
:100420004D815E810E94DA03883621E0920708F54B
:1004300028E631E040E050E00E94B803C9010E9484
:1004400002018F81988561E070E0883621E0920793
:1004500020F068E671E00E94A40389819A812896C1
:100460000FB6F894DEBF0FBECDBFDF91CF910C94D5
:10047000AF012FEF3FEFE2CF4F925F926F927F92EB
:100480008F929F92AF92BF92EF92FF920F931F9322
:10049000CF93DF93CDB7DEB729970FB6F894DEBFC1
:1004A0000FBECDBF8C016F83809108018115E1F3F0
:1004B0000E9493008D839E8308871987E12CF12C7D
:1004C000370188E6482E81E0582E9F81E916F10415
:1004D000ACF029960FB6F894DEBF0FBECDBFDF910A
:1004E000CF911F910F91FF90EF90BF90AF909F9091
:1004F0008F907F906F905F904F900895A885B985F9
:1005000012962D913D91AD81BE810E949503698324
:100510007A838B839C83E885F985248135810E94C9
:1005200095034B015C0189819A81AB81BC812FEFDE
:100530003FEFA836E1E0BE0730F4BC01CD019201E7
:10054000A3010E94B8038901F8E6AF16F1E0BF06E7
:1005500018F5B401C5019201A3010E94B803490135
:10056000C8010E940201809108018111B2CFB4013B
:10057000601B710B0815190511F461E070E08885A6
:1005800099850E94AF012FEFE21AF20A88859985BA
:1005900006968887998799CF99249A94892CE0CFD9
:1005A00020E030E0281739070CF00895E1EBFCE07B
:1005B0003197F1F700C000002F5F3F4FF3CF20E0ED
:1005C00030E0281739070CF0089544E04A95F1F718
:1005D00000002F5F3F4FF5CF009769F040918400F6
:1005E000509185002091840030918500241B350BAB
:1005F00028173907B8F30895AF92BF92CF92DF92D0
:10060000EF92FF920F931F93CF93DF9300D000D010
:10061000CDB7DEB7009770406040B1F120E43DE512
:1006200046EC50E00E94E50329833A834B835C83C8
:10063000303910ED410713E051076105710581055F
:10064000910588F1503910ED610713E071078105BC
:10065000910560F5A12CE0E9BE2EF0EDCF2EF3E080
:10066000DF2EE12CF12C87010E941204C901409178
:100670008400509185002091840030918500241BD6
:10068000350B28173907B8F30F900F900F900F9084
:10069000DF91CF911F910F91FF90EF90DF90CF905E
:1006A000BF90AF90089521E030E0E0CF2FEF3FEF13
:1006B000DDCFFC01908121E001C0220F6A95EAF7AD
:1006C000922B90830895FC01408121E001C0220F0C
:1006D0006A95EAF72095242320830895FC0121E000
:1006E00030E0C90101C0880F6A95EAF7682F808160
:1006F000411519F0862B80830895609568236083E7
:100700000895FC01808190E002C0959587956A95D7
:10071000E2F7817008950E944B010E94D40060E1CD
:1007200080E091E00E943C02FACFA29FB001B39F0B
:10073000C001A39F700D811D1124911DB29F700DEA
:10074000811D1124911D0895AA1BBB1B51E107C0F7
:10075000AA1FBB1FA617B70710F0A61BB70B881F51
:10076000991F5A95A9F780959095BC01CD010895E0
:10077000A1E21A2EAA1BBB1BFD010DC0AA1FBB1FA5
:10078000EE1FFF1FA217B307E407F50720F0A21B17
:10079000B30BE40BF50B661F771F881F991F1A9484
:1007A00069F760957095809590959B01AC01BD01AE
:1007B000CF0108950E949503A59F900DB49F900DC1
:1007C000A49F800D911D11240895E894DF93CF9389
:1007D000FC01DB010E9495037F936F93E9019A016D
:1007E000AC01BF93AF933F932F93DF010E9495031A
:1007F00026F46C1B7D0B820B930B9E01EB01FC011D
:100800000E946F04AF91BF912F913F910E946F049E
:10081000BE01CF01F9012F913F91CF91DF91089552
:10082000689401C0E8948F929F92CF93DF930E94C7
:100830001E04DF91CF919F908F9008958824992472
:10084000F401E401B0E49F93AA279A158B049C0459
:10085000ED05FE05CF05D007A10798F4AD2FDC2FDD
:10086000CF2FFE2FE92D982C892E982F872F762FAA
:10087000652F542F432F322F2227B85031F7BF91C5
:1008800027C01B2EBF91BB27220F331F441F551FAC
:10089000661F771F881F991F881C991CEE1FFF1F5A
:1008A000CC1FDD1FAA1FBB1F8A149B04EC05FD058E
:1008B000CE05DF05A007B10748F08A189B08EC09B0
:1008C000FD09CE09DF09A00BB10B21601A94E1F6F6
:1008D0002EF49401AF01BE01CD01000C08950E94D9
:1008E0009503460F571FC81FD91F08F43196089566
:0408F000F894FFCFAA
:0808F400400000005A00010061
:00000001FF
